{
  "_format": "hh-sol-artifact-1",
  "contractName": "FedChairVoting",
  "sourceName": "contracts/FedChairVoting.sol",
  "abi": [
    {
      "inputs": [
        {
          "internalType": "string[]",
          "name": "_candidateNames",
          "type": "string[]"
        },
        {
          "internalType": "uint256",
          "name": "_votingDurationInSeconds",
          "type": "uint256"
        }
      ],
      "stateMutability": "nonpayable",
      "type": "constructor"
    },
    {
      "anonymous": false,
      "inputs": [
        {
          "indexed": false,
          "internalType": "string[]",
          "name": "finalCandidates",
          "type": "string[]"
        },
        {
          "indexed": false,
          "internalType": "uint32[]",
          "name": "finalResults",
          "type": "uint32[]"
        }
      ],
      "name": "ResultsRevealed",
      "type": "event"
    },
    {
      "anonymous": false,
      "inputs": [
        {
          "indexed": true,
          "internalType": "address",
          "name": "voter",
          "type": "address"
        }
      ],
      "name": "VoteCasted",
      "type": "event"
    },
    {
      "inputs": [
        {
          "internalType": "uint256",
          "name": "",
          "type": "uint256"
        }
      ],
      "name": "candidates",
      "outputs": [
        {
          "internalType": "string",
          "name": "",
          "type": "string"
        }
      ],
      "stateMutability": "view",
      "type": "function"
    },
    {
      "inputs": [
        {
          "internalType": "uint8",
          "name": "",
          "type": "uint8"
        }
      ],
      "name": "encryptedVotes",
      "outputs": [
        {
          "internalType": "uint32",
          "name": "v",
          "type": "uint32"
        }
      ],
      "stateMutability": "view",
      "type": "function"
    },
    {
      "inputs": [],
      "name": "getCandidates",
      "outputs": [
        {
          "internalType": "string[]",
          "name": "",
          "type": "string[]"
        }
      ],
      "stateMutability": "view",
      "type": "function"
    },
    {
      "inputs": [
        {
          "internalType": "address",
          "name": "",
          "type": "address"
        }
      ],
      "name": "hasVoted",
      "outputs": [
        {
          "internalType": "bool",
          "name": "",
          "type": "bool"
        }
      ],
      "stateMutability": "view",
      "type": "function"
    },
    {
      "inputs": [],
      "name": "owner",
      "outputs": [
        {
          "internalType": "address",
          "name": "",
          "type": "address"
        }
      ],
      "stateMutability": "view",
      "type": "function"
    },
    {
      "inputs": [
        {
          "internalType": "uint256",
          "name": "",
          "type": "uint256"
        }
      ],
      "name": "results",
      "outputs": [
        {
          "internalType": "uint32",
          "name": "",
          "type": "uint32"
        }
      ],
      "stateMutability": "view",
      "type": "function"
    },
    {
      "inputs": [],
      "name": "resultsRevealed",
      "outputs": [
        {
          "internalType": "bool",
          "name": "",
          "type": "bool"
        }
      ],
      "stateMutability": "view",
      "type": "function"
    },
    {
      "inputs": [],
      "name": "revealResult",
      "outputs": [],
      "stateMutability": "nonpayable",
      "type": "function"
    },
    {
      "inputs": [
        {
          "internalType": "bytes",
          "name": "encryptedChoice",
          "type": "bytes"
        }
      ],
      "name": "vote",
      "outputs": [],
      "stateMutability": "nonpayable",
      "type": "function"
    },
    {
      "inputs": [],
      "name": "votingEndTimestamp",
      "outputs": [
        {
          "internalType": "uint256",
          "name": "",
          "type": "uint256"
        }
      ],
      "stateMutability": "view",
      "type": "function"
    }
  ],
  "bytecode": "0x60806040523480156200001157600080fd5b5060405162002050380380620020508339818101604052810190620000379190620004e8565b33600260006101000a81548173ffffffffffffffffffffffffffffffffffffffff021916908373ffffffffffffffffffffffffffffffffffffffff16021790555081600090805190602001906200009092919062000131565b5080426200009f91906200057d565b60038190555060005b6000805490508160ff16101562000128576040518060200160405280600063ffffffff16815250600160008360ff1660ff16815260200190815260200160002060008201518160000160006101000a81548163ffffffff021916908363ffffffff16021790555090505080806200011f90620005c5565b915050620000a8565b5050506200091b565b8280548282559060005260206000209081019282156200017e579160200282015b828111156200017d5782518290816200016c919062000834565b509160200191906001019062000152565b5b5090506200018d919062000191565b5090565b5b80821115620001b55760008181620001ab9190620001b9565b5060010162000192565b5090565b508054620001c7906200062d565b6000825580601f10620001db5750620001fc565b601f016020900490600052602060002090810190620001fb9190620001ff565b5b50565b5b808211156200021a57600081600090555060010162000200565b5090565b6000604051905090565b600080fd5b600080fd5b600080fd5b6000601f19601f8301169050919050565b7f4e487b7100000000000000000000000000000000000000000000000000000000600052604160045260246000fd5b620002828262000237565b810181811067ffffffffffffffff82111715620002a457620002a362000248565b5b80604052505050565b6000620002b96200021e565b9050620002c7828262000277565b919050565b600067ffffffffffffffff821115620002ea57620002e962000248565b5b602082029050602081019050919050565b600080fd5b600080fd5b600067ffffffffffffffff82111562000323576200032262000248565b5b6200032e8262000237565b9050602081019050919050565b60005b838110156200035b5780820151818401526020810190506200033e565b60008484015250505050565b60006200037e620003788462000305565b620002ad565b9050828152602081018484840111156200039d576200039c62000300565b5b620003aa8482856200033b565b509392505050565b600082601f830112620003ca57620003c962000232565b5b8151620003dc84826020860162000367565b91505092915050565b6000620003fc620003f684620002cc565b620002ad565b90508083825260208201905060208402830185811115620004225762000421620002fb565b5b835b818110156200047057805167ffffffffffffffff8111156200044b576200044a62000232565b5b8086016200045a8982620003b2565b8552602085019450505060208101905062000424565b5050509392505050565b600082601f83011262000492576200049162000232565b5b8151620004a4848260208601620003e5565b91505092915050565b6000819050919050565b620004c281620004ad565b8114620004ce57600080fd5b50565b600081519050620004e281620004b7565b92915050565b6000806040838503121562000502576200050162000228565b5b600083015167ffffffffffffffff8111156200052357620005226200022d565b5b62000531858286016200047a565b92505060206200054485828601620004d1565b9150509250929050565b7f4e487b7100000000000000000000000000000000000000000000000000000000600052601160045260246000fd5b60006200058a82620004ad565b91506200059783620004ad565b9250828201905080821115620005b257620005b16200054e565b5b92915050565b600060ff82169050919050565b6000620005d282620005b8565b915060ff8203620005e857620005e76200054e565b5b600182019050919050565b600081519050919050565b7f4e487b7100000000000000000000000000000000000000000000000000000000600052602260045260246000fd5b600060028204905060018216806200064657607f821691505b6020821081036200065c576200065b620005fe565b5b50919050565b60008190508160005260206000209050919050565b60006020601f8301049050919050565b600082821b905092915050565b600060088302620006c67fffffffffffffffffffffffffffffffffffffffffffffffffffffffffffffffff8262000687565b620006d2868362000687565b95508019841693508086168417925050509392505050565b6000819050919050565b6000620007156200070f6200070984620004ad565b620006ea565b620004ad565b9050919050565b6000819050919050565b6200073183620006f4565b6200074962000740826200071c565b84845462000694565b825550505050565b600090565b6200076062000751565b6200076d81848462000726565b505050565b5b8181101562000795576200078960008262000756565b60018101905062000773565b5050565b601f821115620007e457620007ae8162000662565b620007b98462000677565b81016020851015620007c9578190505b620007e1620007d88562000677565b83018262000772565b50505b505050565b600082821c905092915050565b60006200080960001984600802620007e9565b1980831691505092915050565b6000620008248383620007f6565b9150826002028217905092915050565b6200083f82620005f3565b67ffffffffffffffff8111156200085b576200085a62000248565b5b6200086782546200062d565b6200087482828562000799565b600060209050601f831160018114620008ac576000841562000897578287015190505b620008a3858262000816565b86555062000913565b601f198416620008bc8662000662565b60005b82811015620008e657848901518255600182019150602085019450602081019050620008bf565b8683101562000906578489015162000902601f891682620007f6565b8355505b6001600288020188555050505b505050505050565b611725806200092b6000396000f3fe608060405234801561001057600080fd5b506004361061009e5760003560e01c80634a5ff00d116100665780634a5ff00d1461016f5780635dbc19f41461019f5780638affaaf3146101a95780638da5cb5b146101c7578063e9dc0614146101e55761009e565b806306a49fce146100a357806309eef43e146100c15780631b0c27da146100f15780633477ee2e146101215780633d792d0e14610151575b600080fd5b6100ab610201565b6040516100b89190610b02565b60405180910390f35b6100db60048036038101906100d69190610b8c565b6102da565b6040516100e89190610bd4565b60405180910390f35b61010b60048036038101906101069190610c25565b6102fa565b6040516101189190610c71565b60405180910390f35b61013b60048036038101906101369190610c25565b610334565b6040516101489190610cd6565b60405180910390f35b6101596103e0565b6040516101669190610bd4565b60405180910390f35b61018960048036038101906101849190610d31565b6103f3565b6040516101969190610c71565b60405180910390f35b6101a7610421565b005b6101b161066a565b6040516101be9190610d6d565b60405180910390f35b6101cf610670565b6040516101dc9190610d97565b60405180910390f35b6101ff60048036038101906101fa9190610e17565b610696565b005b60606000805480602002602001604051908101604052809291908181526020016000905b828210156102d157838290600052602060002001805461024490610e93565b80601f016020809104026020016040519081016040528092919081815260200182805461027090610e93565b80156102bd5780601f10610292576101008083540402835291602001916102bd565b820191906000526020600020905b8154815290600101906020018083116102a057829003601f168201915b505050505081526020019060010190610225565b50505050905090565b60056020528060005260406000206000915054906101000a900460ff1681565b6006818154811061030a57600080fd5b9060005260206000209060089182820401919006600402915054906101000a900463ffffffff1681565b6000818154811061034457600080fd5b90600052602060002001600091509050805461035f90610e93565b80601f016020809104026020016040519081016040528092919081815260200182805461038b90610e93565b80156103d85780601f106103ad576101008083540402835291602001916103d8565b820191906000526020600020905b8154815290600101906020018083116103bb57829003601f168201915b505050505081565b600460009054906101000a900460ff1681565b60016020528060005260406000206000915090508060000160009054906101000a900463ffffffff16905081565b600260009054906101000a900473ffffffffffffffffffffffffffffffffffffffff1673ffffffffffffffffffffffffffffffffffffffff163373ffffffffffffffffffffffffffffffffffffffff16146104b1576040517f08c379a00000000000000000000000000000000000000000000000000000000081526004016104a890610f36565b60405180910390fd5b6003544210156104f6576040517f08c379a00000000000000000000000000000000000000000000000000000000081526004016104ed90610fa2565b60405180910390fd5b600460009054906101000a900460ff1615610546576040517f08c379a000000000000000000000000000000000000000000000000000000000815260040161053d90611034565b60405180910390fd5b60005b6000805490508160ff1610156106115760006105ad600160008460ff1660ff1681526020019081526020016000206040518060200160405290816000820160009054906101000a900463ffffffff1663ffffffff1663ffffffff16815250506108e9565b905060068190806001815401808255809150506001900390600052602060002090600891828204019190066004029091909190916101000a81548163ffffffff021916908363ffffffff16021790555050808061060990611083565b915050610549565b506001600460006101000a81548160ff0219169083151502179055507f48fe4f2d4fa64fbb3d3bd95c8437f460d209afa8d2e228f9279b742bbbb11900600060066040516106609291906115e0565b60405180910390a1565b60035481565b600260009054906101000a900473ffffffffffffffffffffffffffffffffffffffff1681565b60035442106106da576040517f08c379a00000000000000000000000000000000000000000000000000000000081526004016106d190611663565b60405180910390fd5b600560003373ffffffffffffffffffffffffffffffffffffffff1673ffffffffffffffffffffffffffffffffffffffff16815260200190815260200160002060009054906101000a900460ff1615610767576040517f08c379a000000000000000000000000000000000000000000000000000000000815260040161075e906116cf565b60405180910390fd5b600061077383836108f0565b905060005b6000805490508160ff16101561084857600061079c8361079784610913565b610935565b90506107f1600160008460ff1660ff1681526020019081526020016000206040518060200160405290816000820160009054906101000a900463ffffffff1663ffffffff1663ffffffff16815250508261095b565b600160008460ff1660ff16815260200190815260200160002060008201518160000160006101000a81548163ffffffff021916908363ffffffff16021790555090505050808061084090611083565b915050610778565b506001600560003373ffffffffffffffffffffffffffffffffffffffff1673ffffffffffffffffffffffffffffffffffffffff16815260200190815260200160002060006101000a81548160ff0219169083151502179055503373ffffffffffffffffffffffffffffffffffffffff167f7ce969a18bb6b0fba42c6d9746e7d08eeca4c661809659c91d276456e3153ac060405160405180910390a2505050565b6000919050565b6108f8610981565b6040518060200160405280600060ff16815250905092915050565b61091b610981565b6040518060200160405280600060ff168152509050919050565b61093d610997565b6040518060200160405280600063ffffffff16815250905092915050565b610963610997565b6040518060200160405280600063ffffffff16815250905092915050565b6040518060200160405280600060ff1681525090565b6040518060200160405280600063ffffffff1681525090565b600081519050919050565b600082825260208201905092915050565b6000819050602082019050919050565b600081519050919050565b600082825260208201905092915050565b60005b83811015610a165780820151818401526020810190506109fb565b60008484015250505050565b6000601f19601f8301169050919050565b6000610a3e826109dc565b610a4881856109e7565b9350610a588185602086016109f8565b610a6181610a22565b840191505092915050565b6000610a788383610a33565b905092915050565b6000602082019050919050565b6000610a98826109b0565b610aa281856109bb565b935083602082028501610ab4856109cc565b8060005b85811015610af05784840389528151610ad18582610a6c565b9450610adc83610a80565b925060208a01995050600181019050610ab8565b50829750879550505050505092915050565b60006020820190508181036000830152610b1c8184610a8d565b905092915050565b600080fd5b600080fd5b600073ffffffffffffffffffffffffffffffffffffffff82169050919050565b6000610b5982610b2e565b9050919050565b610b6981610b4e565b8114610b7457600080fd5b50565b600081359050610b8681610b60565b92915050565b600060208284031215610ba257610ba1610b24565b5b6000610bb084828501610b77565b91505092915050565b60008115159050919050565b610bce81610bb9565b82525050565b6000602082019050610be96000830184610bc5565b92915050565b6000819050919050565b610c0281610bef565b8114610c0d57600080fd5b50565b600081359050610c1f81610bf9565b92915050565b600060208284031215610c3b57610c3a610b24565b5b6000610c4984828501610c10565b91505092915050565b600063ffffffff82169050919050565b610c6b81610c52565b82525050565b6000602082019050610c866000830184610c62565b92915050565b600082825260208201905092915050565b6000610ca8826109dc565b610cb28185610c8c565b9350610cc28185602086016109f8565b610ccb81610a22565b840191505092915050565b60006020820190508181036000830152610cf08184610c9d565b905092915050565b600060ff82169050919050565b610d0e81610cf8565b8114610d1957600080fd5b50565b600081359050610d2b81610d05565b92915050565b600060208284031215610d4757610d46610b24565b5b6000610d5584828501610d1c565b91505092915050565b610d6781610bef565b82525050565b6000602082019050610d826000830184610d5e565b92915050565b610d9181610b4e565b82525050565b6000602082019050610dac6000830184610d88565b92915050565b600080fd5b600080fd5b600080fd5b60008083601f840112610dd757610dd6610db2565b5b8235905067ffffffffffffffff811115610df457610df3610db7565b5b602083019150836001820283011115610e1057610e0f610dbc565b5b9250929050565b60008060208385031215610e2e57610e2d610b24565b5b600083013567ffffffffffffffff811115610e4c57610e4b610b29565b5b610e5885828601610dc1565b92509250509250929050565b7f4e487b7100000000000000000000000000000000000000000000000000000000600052602260045260246000fd5b60006002820490506001821680610eab57607f821691505b602082108103610ebe57610ebd610e64565b5b50919050565b7f4f6e6c792074686520636f6e7472616374206f776e65722063616e207265766560008201527f616c20726573756c74732e000000000000000000000000000000000000000000602082015250565b6000610f20602b83610c8c565b9150610f2b82610ec4565b604082019050919050565b60006020820190508181036000830152610f4f81610f13565b9050919050565b7f566f74696e6720686173206e6f7420656e646564207965742e00000000000000600082015250565b6000610f8c601983610c8c565b9150610f9782610f56565b602082019050919050565b60006020820190508181036000830152610fbb81610f7f565b9050919050565b7f526573756c7473206861766520616c7265616479206265656e2072657665616c60008201527f65642e0000000000000000000000000000000000000000000000000000000000602082015250565b600061101e602383610c8c565b915061102982610fc2565b604082019050919050565b6000602082019050818103600083015261104d81611011565b9050919050565b7f4e487b7100000000000000000000000000000000000000000000000000000000600052601160045260246000fd5b600061108e82610cf8565b915060ff82036110a1576110a0611054565b5b600182019050919050565b600081549050919050565b60008190508160005260206000209050919050565b60008190508160005260206000209050919050565b600081546110ee81610e93565b6110f881866109e7565b9450600182166000811461111357600181146111295761115c565b60ff19831686528115156020028601935061115c565b611132856110cc565b60005b8381101561115457815481890152600182019150602081019050611135565b808801955050505b50505092915050565b600061117183836110e1565b905092915050565b6000600182019050919050565b6000611191826110ac565b61119b81856109bb565b9350836020820285016111ad856110b7565b8060005b858110156111e8578484038952816111c98582611165565b94506111d483611179565b925060208a019950506001810190506111b1565b50829750879550505050505092915050565b600081549050919050565b600082825260208201905092915050565b60008190508160005260206000209050919050565b61123481610c52565b82525050565b60008160001c9050919050565b600063ffffffff82169050919050565b600061126a6112658361123a565b611247565b9050919050565b60008160201c9050919050565b600061129161128c83611271565b611247565b9050919050565b60008160401c9050919050565b60006112b86112b383611298565b611247565b9050919050565b60008160601c9050919050565b60006112df6112da836112bf565b611247565b9050919050565b60008160801c9050919050565b6000611306611301836112e6565b611247565b9050919050565b60008160a01c9050919050565b600061132d6113288361130d565b611247565b9050919050565b60008160c01c9050919050565b600061135461134f83611334565b611247565b9050919050565b60008160e01c9050919050565b600061137b6113768361135b565b611247565b9050919050565b600061138d826111fa565b6113978185611205565b9350836113a384611216565b6000600115611490575b8360016008038201101561148f5781546113cf886113ca83611257565b61122b565b6020880197506113e7886113e28361127e565b61122b565b6020880197506113ff886113fa836112a5565b61122b565b60208801975061141788611412836112cc565b61122b565b60208801975061142f8861142a836112f3565b61122b565b602088019750611447886114428361131a565b61122b565b60208801975061145f8861145a83611341565b61122b565b6020880197506114778861147283611368565b61122b565b602088019750600183019250506008810190506113ad565b5b6001156115d3578154848210156114c0576114b3886114ae83611257565b61122b565b6020880197506001820191505b848210156114e7576114da886114d58361127e565b61122b565b6020880197506001820191505b8482101561150e57611501886114fc836112a5565b61122b565b6020880197506001820191505b848210156115355761152888611523836112cc565b61122b565b6020880197506001820191505b8482101561155c5761154f8861154a836112f3565b61122b565b6020880197506001820191505b8482101561158357611576886115718361131a565b61122b565b6020880197506001820191505b848210156115aa5761159d8861159883611341565b61122b565b6020880197506001820191505b848210156115d1576115c4886115bf83611368565b61122b565b6020880197506001820191505b505b8694505050505092915050565b600060408201905081810360008301526115fa8185611186565b9050818103602083015261160e8184611382565b90509392505050565b7f566f74696e672068617320616c726561647920656e6465642e00000000000000600082015250565b600061164d601983610c8c565b915061165882611617565b602082019050919050565b6000602082019050818103600083015261167c81611640565b9050919050565b7f5468697320616464726573732068617320616c726561647920766f7465642e00600082015250565b60006116b9601f83610c8c565b91506116c482611683565b602082019050919050565b600060208201905081810360008301526116e8816116ac565b905091905056fea2646970667358221220329c9491b05029f85f3b6593c64c40207fd1b332f02a86663bffdd27056ac1c064736f6c63430008140033",
  "linkReferences": {},
  "deployedLinkReferences": {}
}